:0A0000000C942F000C9400000C94E7
:10000A0000000C9400000C9400000C9400000C9466
:10001A0000000C9400000C9400000C9400000C9456
:10002A0000000C9400000C9400000C9400000C9446
:10003A0000000C9400000C9400000C9400000C9436
:10004A0000000C9400000C94000000000200040060
:10005A0054000000F894EE27ECBBF1E0FBBFEBBFC5
:10006A00E5BF8DE0A2E0BB27ED938A95E9F780E032
:10007A0094E0A0E6ED930197E9F7E6E5F0E08591D3
:10008A009591009761F0A591B59105901590BF01E2
:10009A00F00105900D920197E1F7FB01F0CFEFE532
:1000AA00EDBFE4E0EEBFC0E6D1E00C945C00E0E016
:1000BA00E5BBE7E0E4BBEFE0E2BBE0E0E1BB80994F
:1000CA0007C0A0E9B1E032D0F20131962F01F7CF93
:1000DA0081990BC0A0E9B1E029D0002404140504D9
:1000EA001CF4F20131972F01F3CF82991AC0002430
:1000FA0004140504ACF4F20131972F01A89AA998C7
:10010A00AA9AA8ECB0E012D0AA98A8ECB0E00ED057
:10011A00839B06C0A8E5B2E009D0839B01C0E7CF64
:10012A00E4CFA898A998AA98CACFFFCF109639F019
:10013A00A89580ED97E00197F1F71197C9F708950F
:00000001FF
